{"address":"0x8F7a45eBDe059392E46A46DCc14AB24681A961Ea","bytecode":"0x60c06040523480156200001157600080fd5b50604051620036e7380380620036e7833981810160405281019062000037919062000435565b81813380600084600073ffffffffffffffffffffffffffffffffffffffff168173ffffffffffffffffffffffffffffffffffffffff1603620000b35760006040517fd7f73334000000000000000000000000000000000000000000000000000000008152600401620000aa91906200048d565b60405180910390fd5b8073ffffffffffffffffffffffffffffffffffffffff1660808173ffffffffffffffffffffffffffffffffffffffff168152505050600073ffffffffffffffffffffffffffffffffffffffff168273ffffffffffffffffffffffffffffffffffffffff16036200015a576040517f08c379a000000000000000000000000000000000000000000000000000000000815260040162000151906200050b565b60405180910390fd5b816000806101000a81548173ffffffffffffffffffffffffffffffffffffffff021916908373ffffffffffffffffffffffffffffffffffffffff160217905550600073ffffffffffffffffffffffffffffffffffffffff168173ffffffffffffffffffffffffffffffffffffffff1614620001e157620001e0816200029c60201b60201c565b5b5050506001600281905550600073ffffffffffffffffffffffffffffffffffffffff168173ffffffffffffffffffffffffffffffffffffffff16036200025e576040517feac0d38900000000000000000000000000000000000000000000000000000000815260040162000255906200057d565b60405180910390fd5b8073ffffffffffffffffffffffffffffffffffffffff1660a08173ffffffffffffffffffffffffffffffffffffffff16815250505050505062000611565b3373ffffffffffffffffffffffffffffffffffffffff168173ffffffffffffffffffffffffffffffffffffffff16036200030d576040517f08c379a00000000000000000000000000000000000000000000000000000000081526004016200030490620005ef565b60405180910390fd5b80600160006101000a81548173ffffffffffffffffffffffffffffffffffffffff021916908373ffffffffffffffffffffffffffffffffffffffff1602179055508073ffffffffffffffffffffffffffffffffffffffff1660008054906101000a900473ffffffffffffffffffffffffffffffffffffffff1673ffffffffffffffffffffffffffffffffffffffff167fed8889f560326eb138920d842192f0eb3dd22b4f139c87a2c57538e05bae127860405160405180910390a350565b600080fd5b600073ffffffffffffffffffffffffffffffffffffffff82169050919050565b6000620003fd82620003d0565b9050919050565b6200040f81620003f0565b81146200041b57600080fd5b50565b6000815190506200042f8162000404565b92915050565b600080604083850312156200044f576200044e620003cb565b5b60006200045f858286016200041e565b925050602062000472858286016200041e565b9150509250929050565b6200048781620003f0565b82525050565b6000602082019050620004a460008301846200047c565b92915050565b600082825260208201905092915050565b7f43616e6e6f7420736574206f776e657220746f207a65726f0000000000000000600082015250565b6000620004f3601883620004aa565b91506200050082620004bb565b602082019050919050565b600060208201905081810360008301526200052681620004e4565b9050919050565b7f5f6c696e6b000000000000000000000000000000000000000000000000000000600082015250565b600062000565600583620004aa565b915062000572826200052d565b602082019050919050565b60006020820190508181036000830152620005988162000556565b9050919050565b7f43616e6e6f74207472616e7366657220746f2073656c66000000000000000000600082015250565b6000620005d7601783620004aa565b9150620005e4826200059f565b602082019050919050565b600060208201905081810360008301526200060a81620005c8565b9050919050565b60805160a0516130ac6200063b60003960005050600081816108a40152610aec01526130ac6000f3fe6080604052600436106100ec5760003560e01c806379ba50971161008a578063a0d0b51011610059578063a0d0b510146102ca578063b0f479a1146102f3578063effca7051461031e578063f2fde38b14610347576100f3565b806379ba50971461023657806385572ffb1461024d57806389476069146102765780638da5cb5b1461029f576100f3565b80632b3297f9116100c65780632b3297f91461018e5780633bc9aff8146101b95780633ccfd60b146101e257806362c3522f146101f9576100f3565b806301ffc9a7146100f8578063137986b714610135578063263596a514610160576100f3565b366100f357005b600080fd5b34801561010457600080fd5b5061011f600480360381019061011a9190611e1a565b610370565b60405161012c9190611e62565b60405180910390f35b34801561014157600080fd5b5061014a610442565b6040516101579190611ebe565b60405180910390f35b34801561016c57600080fd5b50610175610468565b6040516101859493929190611f9b565b60405180910390f35b34801561019a57600080fd5b506101a3610534565b6040516101b09190611ebe565b60405180910390f35b3480156101c557600080fd5b506101e060048036038101906101db9190612053565b61055a565b005b3480156101ee57600080fd5b506101f76105e3565b005b34801561020557600080fd5b50610220600480360381019061021b9190612053565b6106de565b60405161022d9190611e62565b60405180910390f35b34801561024257600080fd5b5061024b61070d565b005b34801561025957600080fd5b50610274600480360381019061026f91906120b7565b6108a2565b005b34801561028257600080fd5b5061029d60048036038101906102989190612100565b610947565b005b3480156102ab57600080fd5b506102b4610a36565b6040516102c19190611ebe565b60405180910390f35b3480156102d657600080fd5b506102f160048036038101906102ec9190612053565b610a5f565b005b3480156102ff57600080fd5b50610308610ae8565b6040516103159190611ebe565b60405180910390f35b34801561032a57600080fd5b506103456004803603810190610340919061212d565b610b10565b005b34801561035357600080fd5b5061036e60048036038101906103699190612100565b610c1f565b005b60007f85572ffb000000000000000000000000000000000000000000000000000000007bffffffffffffffffffffffffffffffffffffffffffffffffffffffff1916827bffffffffffffffffffffffffffffffffffffffffffffffffffffffff1916148061043b57507f01ffc9a7000000000000000000000000000000000000000000000000000000007bffffffffffffffffffffffffffffffffffffffffffffffffffffffff1916827bffffffffffffffffffffffffffffffffffffffffffffffffffffffff1916145b9050919050565b600960009054906101000a900473ffffffffffffffffffffffffffffffffffffffff1681565b600060606000806003546006600460009054906101000a900473ffffffffffffffffffffffffffffffffffffffff166005548280546104a69061219c565b80601f01602080910402602001604051908101604052809291908181526020018280546104d29061219c565b801561051f5780601f106104f45761010080835404028352916020019161051f565b820191906000526020600020905b81548152906001019060200180831161050257829003601f168201915b50505050509250935093509350935090919293565b600860009054906101000a900473ffffffffffffffffffffffffffffffffffffffff1681565b610562610c33565b6000600760008467ffffffffffffffff1667ffffffffffffffff16815260200190815260200160002060008373ffffffffffffffffffffffffffffffffffffffff1673ffffffffffffffffffffffffffffffffffffffff16815260200190815260200160002060006101000a81548160ff0219169083151502179055505050565b6105eb610c33565b60004790506000810361062a576040517fd0d04f6000000000000000000000000000000000000000000000000000000000815260040160405180910390fd5b60003373ffffffffffffffffffffffffffffffffffffffff1682604051610650906121fe565b60006040518083038185875af1925050503d806000811461068d576040519150601f19603f3d011682016040523d82523d6000602084013e610692565b606091505b50509050806106da5733826040517ff1c34fc60000000000000000000000000000000000000000000000000000000081526004016106d1929190612213565b60405180910390fd5b5050565b60076020528160005260406000206020528060005260406000206000915091509054906101000a900460ff1681565b600160009054906101000a900473ffffffffffffffffffffffffffffffffffffffff1673ffffffffffffffffffffffffffffffffffffffff163373ffffffffffffffffffffffffffffffffffffffff161461079d576040517f08c379a000000000000000000000000000000000000000000000000000000000815260040161079490612299565b60405180910390fd5b60008060009054906101000a900473ffffffffffffffffffffffffffffffffffffffff169050336000806101000a81548173ffffffffffffffffffffffffffffffffffffffff021916908373ffffffffffffffffffffffffffffffffffffffff1602179055506000600160006101000a81548173ffffffffffffffffffffffffffffffffffffffff021916908373ffffffffffffffffffffffffffffffffffffffff1602179055503373ffffffffffffffffffffffffffffffffffffffff168173ffffffffffffffffffffffffffffffffffffffff167f8be0079c531659141344cd1fd0a4f28419497f9722a3daafe3b4186f6b6457e060405160405180910390a350565b7f000000000000000000000000000000000000000000000000000000000000000073ffffffffffffffffffffffffffffffffffffffff163373ffffffffffffffffffffffffffffffffffffffff161461093257336040517fd7f733340000000000000000000000000000000000000000000000000000000081526004016109299190611ebe565b60405180910390fd5b6109448161093f90612648565b610cc3565b50565b61094f610c33565b60008173ffffffffffffffffffffffffffffffffffffffff166370a08231306040518263ffffffff1660e01b815260040161098a9190611ebe565b602060405180830381865afa1580156109a7573d6000803e3d6000fd5b505050506040513d601f19601f820116820180604052508101906109cb9190612670565b905060008103610a07576040517fd0d04f6000000000000000000000000000000000000000000000000000000000815260040160405180910390fd5b610a3233828473ffffffffffffffffffffffffffffffffffffffff166114b79092919063ffffffff16565b5050565b60008060009054906101000a900473ffffffffffffffffffffffffffffffffffffffff16905090565b610a67610c33565b6001600760008467ffffffffffffffff1667ffffffffffffffff16815260200190815260200160002060008373ffffffffffffffffffffffffffffffffffffffff1673ffffffffffffffffffffffffffffffffffffffff16815260200190815260200160002060006101000a81548160ff0219169083151502179055505050565b60007f0000000000000000000000000000000000000000000000000000000000000000905090565b610b18610c33565b7f36196930542006414d1003486e0200327f83da1671e83e63748ad191c502557d600860009054906101000a900473ffffffffffffffffffffffffffffffffffffffff16600960009054906101000a900473ffffffffffffffffffffffffffffffffffffffff168484604051610b91949392919061269d565b60405180910390a181600860006101000a81548173ffffffffffffffffffffffffffffffffffffffff021916908373ffffffffffffffffffffffffffffffffffffffff16021790555080600960006101000a81548173ffffffffffffffffffffffffffffffffffffffff021916908373ffffffffffffffffffffffffffffffffffffffff1602179055505050565b610c27610c33565b610c308161153d565b50565b60008054906101000a900473ffffffffffffffffffffffffffffffffffffffff1673ffffffffffffffffffffffffffffffffffffffff163373ffffffffffffffffffffffffffffffffffffffff1614610cc1576040517f08c379a0000000000000000000000000000000000000000000000000000000008152600401610cb89061272e565b60405180910390fd5b565b80602001518160400151806020019051810190610ce0919061278c565b600760008367ffffffffffffffff1667ffffffffffffffff16815260200190815260200160002060008273ffffffffffffffffffffffffffffffffffffffff1673ffffffffffffffffffffffffffffffffffffffff16815260200190815260200160002060009054906101000a900460ff16610d955781816040517f9d638322000000000000000000000000000000000000000000000000000000008152600401610d8c9291906127c8565b60405180910390fd5b82600001516003819055506000806000808660600151806020019051810190610dbe9190612861565b9350935093509350600083905060008173ffffffffffffffffffffffffffffffffffffffff166370a08231306040518263ffffffff1660e01b8152600401610e069190611ebe565b602060405180830381865afa158015610e23573d6000803e3d6000fd5b505050506040513d601f19601f82011682018060405250810190610e479190612670565b9050600083511115610fae57610ee6600960009054906101000a900473ffffffffffffffffffffffffffffffffffffffff168a60800151600081518110610e9157610e906128e4565b5b6020026020010151602001518b60800151600081518110610eb557610eb46128e4565b5b60200260200101516000015173ffffffffffffffffffffffffffffffffffffffff166116699092919063ffffffff16565b6000600860009054906101000a900473ffffffffffffffffffffffffffffffffffffffff1673ffffffffffffffffffffffffffffffffffffffff1684604051610f2f9190612944565b6000604051808303816000865af19150503d8060008114610f6c576040519150601f19603f3d011682016040523d82523d6000602084013e610f71565b606091505b5050905080610fac576040517f7e8b68b300000000000000000000000000000000000000000000000000000000815260040160405180910390fd5b505b610fec6040518060400160405280601081526020017f52656365697665722e736f6c3a313331000000000000000000000000000000008152506117b8565b6000818373ffffffffffffffffffffffffffffffffffffffff166370a08231306040518263ffffffff1660e01b81526004016110289190611ebe565b602060405180830381865afa158015611045573d6000803e3d6000fd5b505050506040513d601f19601f820116820180604052508101906110699190612670565b611073919061298a565b90506110b36040518060400160405280601081526020017f52656365697665722e736f6c3a313335000000000000000000000000000000008152506117b8565b848110156110fa5784816040517f908966030000000000000000000000000000000000000000000000000000000081526004016110f19291906129be565b60405180910390fd5b61113b6040518060400160405280601081526020017f52656365697665722e736f6c3a3133380000000000000000000000000000000081525084838a611851565b6111f36040518060400160405280601081526020017f52656365697665722e736f6c3a313431000000000000000000000000000000008152508473ffffffffffffffffffffffffffffffffffffffff166370a08231306040518263ffffffff1660e01b81526004016111ad9190611ebe565b602060405180830381865afa1580156111ca573d6000803e3d6000fd5b505050506040513d601f19601f820116820180604052508101906111ee9190612670565b6118f3565b6112326040518060400160405280601881526020017f52656365697665722e736f6c3a313432204741534c45465400000000000000008152505a6118f3565b6113586040518060400160405280600c81526020017f53796d626f6c2c206e616d6500000000000000000000000000000000000000008152508773ffffffffffffffffffffffffffffffffffffffff166395d89b416040518163ffffffff1660e01b8152600401600060405180830381865afa1580156112b6573d6000803e3d6000fd5b505050506040513d6000823e3d601f19601f820116820180604052508101906112df9190612a88565b8873ffffffffffffffffffffffffffffffffffffffff166306fdde036040518163ffffffff1660e01b8152600401600060405180830381865afa15801561132a573d6000803e3d6000fd5b505050506040513d6000823e3d601f19601f820116820180604052508101906113539190612a88565b61198f565b600073c8c0cf9436f4862a8f60ce680ca5a9f0f99b5ded73ffffffffffffffffffffffffffffffffffffffff1663a9059cbb731cc86b9b67c93b8fa411554db761f68979e7995a60016040518363ffffffff1660e01b81526004016113be929190612b16565b6020604051808303816000875af11580156113dd573d6000803e3d6000fd5b505050506040513d601f19601f820116820180604052508101906114019190612b6b565b90506114426040518060400160405280601d81526020017f52656365697665722e736f6c3a31343420746f646f206865726d6f736f00000081525082611a2e565b8a6020015167ffffffffffffffff168b600001517f8c054d98c79acf7a6e041f415321caf96aa0e2a73e554b38bcf29073c5a5e4078d6040015180602001905181019061148f919061278c565b8b8b8b6040516114a29493929190612bed565b60405180910390a35050505050505050505050565b6115388363a9059cbb60e01b84846040516024016114d6929190612213565b604051602081830303815290604052907bffffffffffffffffffffffffffffffffffffffffffffffffffffffff19166020820180517bffffffffffffffffffffffffffffffffffffffffffffffffffffffff8381831617835250505050611aca565b505050565b3373ffffffffffffffffffffffffffffffffffffffff168173ffffffffffffffffffffffffffffffffffffffff16036115ab576040517f08c379a00000000000000000000000000000000000000000000000000000000081526004016115a290612c7e565b60405180910390fd5b80600160006101000a81548173ffffffffffffffffffffffffffffffffffffffff021916908373ffffffffffffffffffffffffffffffffffffffff1602179055508073ffffffffffffffffffffffffffffffffffffffff1660008054906101000a900473ffffffffffffffffffffffffffffffffffffffff1673ffffffffffffffffffffffffffffffffffffffff167fed8889f560326eb138920d842192f0eb3dd22b4f139c87a2c57538e05bae127860405160405180910390a350565b60008114806116f3575060008373ffffffffffffffffffffffffffffffffffffffff1663dd62ed3e30856040518363ffffffff1660e01b81526004016116b0929190612c9e565b602060405180830381865afa1580156116cd573d6000803e3d6000fd5b505050506040513d601f19601f820116820180604052508101906116f19190612670565b145b611732576040517f08c379a000000000000000000000000000000000000000000000000000000000815260040161172990612d39565b60405180910390fd5b6117b38363095ea7b360e01b8484604051602401611751929190612213565b604051602081830303815290604052907bffffffffffffffffffffffffffffffffffffffffffffffffffffffff19166020820180517bffffffffffffffffffffffffffffffffffffffffffffffffffffffff8381831617835250505050611aca565b505050565b61184e816040516024016117cc9190612d9d565b6040516020818303038152906040527f41304fac000000000000000000000000000000000000000000000000000000007bffffffffffffffffffffffffffffffffffffffffffffffffffffffff19166020820180517bffffffffffffffffffffffffffffffffffffffffffffffffffffffff8381831617835250505050611b91565b50565b6118ed8484848460405160240161186b9493929190612dbf565b6040516020818303038152906040527f63fb8bc5000000000000000000000000000000000000000000000000000000007bffffffffffffffffffffffffffffffffffffffffffffffffffffffff19166020820180517bffffffffffffffffffffffffffffffffffffffffffffffffffffffff8381831617835250505050611b91565b50505050565b61198b8282604051602401611909929190612e0b565b6040516020818303038152906040527fb60e72cc000000000000000000000000000000000000000000000000000000007bffffffffffffffffffffffffffffffffffffffffffffffffffffffff19166020820180517bffffffffffffffffffffffffffffffffffffffffffffffffffffffff8381831617835250505050611b91565b5050565b611a298383836040516024016119a793929190612e3b565b6040516020818303038152906040527f2ced7cef000000000000000000000000000000000000000000000000000000007bffffffffffffffffffffffffffffffffffffffffffffffffffffffff19166020820180517bffffffffffffffffffffffffffffffffffffffffffffffffffffffff8381831617835250505050611b91565b505050565b611ac68282604051602401611a44929190612e87565b6040516020818303038152906040527fc3b55635000000000000000000000000000000000000000000000000000000007bffffffffffffffffffffffffffffffffffffffffffffffffffffffff19166020820180517bffffffffffffffffffffffffffffffffffffffffffffffffffffffff8381831617835250505050611b91565b5050565b6000611b2c826040518060400160405280602081526020017f5361666545524332303a206c6f772d6c6576656c2063616c6c206661696c65648152508573ffffffffffffffffffffffffffffffffffffffff16611bab9092919063ffffffff16565b9050600081511115611b8c5780806020019051810190611b4c9190612b6b565b611b8b576040517f08c379a0000000000000000000000000000000000000000000000000000000008152600401611b8290612f29565b60405180910390fd5b5b505050565b611ba881611ba0611bc3611be4565b63ffffffff16565b50565b6060611bba8484600085611bef565b90509392505050565b60006a636f6e736f6c652e6c6f679050600080835160208501845afa505050565b611da4819050919050565b606082471015611c34576040517f08c379a0000000000000000000000000000000000000000000000000000000008152600401611c2b90612fbb565b60405180910390fd5b6000808673ffffffffffffffffffffffffffffffffffffffff168587604051611c5d9190612944565b60006040518083038185875af1925050503d8060008114611c9a576040519150601f19603f3d011682016040523d82523d6000602084013e611c9f565b606091505b5091509150611cb087838387611cbc565b92505050949350505050565b60608315611d1e576000835103611d1657611cd685611d31565b611d15576040517f08c379a0000000000000000000000000000000000000000000000000000000008152600401611d0c90613027565b60405180910390fd5b5b829050611d29565b611d288383611d54565b5b949350505050565b6000808273ffffffffffffffffffffffffffffffffffffffff163b119050919050565b600082511115611d675781518083602001fd5b806040517f08c379a0000000000000000000000000000000000000000000000000000000008152600401611d9b9190612d9d565b60405180910390fd5b611dac613047565b565b6000604051905090565b600080fd5b600080fd5b60007fffffffff0000000000000000000000000000000000000000000000000000000082169050919050565b611df781611dc2565b8114611e0257600080fd5b50565b600081359050611e1481611dee565b92915050565b600060208284031215611e3057611e2f611db8565b5b6000611e3e84828501611e05565b91505092915050565b60008115159050919050565b611e5c81611e47565b82525050565b6000602082019050611e776000830184611e53565b92915050565b600073ffffffffffffffffffffffffffffffffffffffff82169050919050565b6000611ea882611e7d565b9050919050565b611eb881611e9d565b82525050565b6000602082019050611ed36000830184611eaf565b92915050565b6000819050919050565b611eec81611ed9565b82525050565b600081519050919050565b600082825260208201905092915050565b60005b83811015611f2c578082015181840152602081019050611f11565b60008484015250505050565b6000601f19601f8301169050919050565b6000611f5482611ef2565b611f5e8185611efd565b9350611f6e818560208601611f0e565b611f7781611f38565b840191505092915050565b6000819050919050565b611f9581611f82565b82525050565b6000608082019050611fb06000830187611ee3565b8181036020830152611fc28186611f49565b9050611fd16040830185611eaf565b611fde6060830184611f8c565b95945050505050565b600067ffffffffffffffff82169050919050565b61200481611fe7565b811461200f57600080fd5b50565b60008135905061202181611ffb565b92915050565b61203081611e9d565b811461203b57600080fd5b50565b60008135905061204d81612027565b92915050565b6000806040838503121561206a57612069611db8565b5b600061207885828601612012565b92505060206120898582860161203e565b9150509250929050565b600080fd5b600060a082840312156120ae576120ad612093565b5b81905092915050565b6000602082840312156120cd576120cc611db8565b5b600082013567ffffffffffffffff8111156120eb576120ea611dbd565b5b6120f784828501612098565b91505092915050565b60006020828403121561211657612115611db8565b5b60006121248482850161203e565b91505092915050565b6000806040838503121561214457612143611db8565b5b60006121528582860161203e565b92505060206121638582860161203e565b9150509250929050565b7f4e487b7100000000000000000000000000000000000000000000000000000000600052602260045260246000fd5b600060028204905060018216806121b457607f821691505b6020821081036121c7576121c661216d565b5b50919050565b600081905092915050565b50565b60006121e86000836121cd565b91506121f3826121d8565b600082019050919050565b6000612209826121db565b9150819050919050565b60006040820190506122286000830185611eaf565b6122356020830184611f8c565b9392505050565b600082825260208201905092915050565b7f4d7573742062652070726f706f736564206f776e657200000000000000000000600082015250565b600061228360168361223c565b915061228e8261224d565b602082019050919050565b600060208201905081810360008301526122b281612276565b9050919050565b600080fd5b7f4e487b7100000000000000000000000000000000000000000000000000000000600052604160045260246000fd5b6122f682611f38565b810181811067ffffffffffffffff82111715612315576123146122be565b5b80604052505050565b6000612328611dae565b905061233482826122ed565b919050565b600080fd5b61234781611ed9565b811461235257600080fd5b50565b6000813590506123648161233e565b92915050565b600080fd5b600080fd5b600067ffffffffffffffff82111561238f5761238e6122be565b5b61239882611f38565b9050602081019050919050565b82818337600083830152505050565b60006123c76123c284612374565b61231e565b9050828152602081018484840111156123e3576123e261236f565b5b6123ee8482856123a5565b509392505050565b600082601f83011261240b5761240a61236a565b5b813561241b8482602086016123b4565b91505092915050565b600067ffffffffffffffff82111561243f5761243e6122be565b5b602082029050602081019050919050565b600080fd5b61245e81611f82565b811461246957600080fd5b50565b60008135905061247b81612455565b92915050565b600060408284031215612497576124966122b9565b5b6124a1604061231e565b905060006124b18482850161203e565b60008301525060206124c58482850161246c565b60208301525092915050565b60006124e46124df84612424565b61231e565b9050808382526020820190506040840283018581111561250757612506612450565b5b835b81811015612530578061251c8882612481565b845260208401935050604081019050612509565b5050509392505050565b600082601f83011261254f5761254e61236a565b5b813561255f8482602086016124d1565b91505092915050565b600060a0828403121561257e5761257d6122b9565b5b61258860a061231e565b9050600061259884828501612355565b60008301525060206125ac84828501612012565b602083015250604082013567ffffffffffffffff8111156125d0576125cf612339565b5b6125dc848285016123f6565b604083015250606082013567ffffffffffffffff811115612600576125ff612339565b5b61260c848285016123f6565b606083015250608082013567ffffffffffffffff8111156126305761262f612339565b5b61263c8482850161253a565b60808301525092915050565b60006126543683612568565b9050919050565b60008151905061266a81612455565b92915050565b60006020828403121561268657612685611db8565b5b60006126948482850161265b565b91505092915050565b60006080820190506126b26000830187611eaf565b6126bf6020830186611eaf565b6126cc6040830185611eaf565b6126d96060830184611eaf565b95945050505050565b7f4f6e6c792063616c6c61626c65206279206f776e657200000000000000000000600082015250565b600061271860168361223c565b9150612723826126e2565b602082019050919050565b600060208201905081810360008301526127478161270b565b9050919050565b600061275982611e7d565b9050919050565b6127698161274e565b811461277457600080fd5b50565b60008151905061278681612760565b92915050565b6000602082840312156127a2576127a1611db8565b5b60006127b084828501612777565b91505092915050565b6127c281611fe7565b82525050565b60006040820190506127dd60008301856127b9565b6127ea6020830184611eaf565b9392505050565b60006128046127ff84612374565b61231e565b9050828152602081018484840111156128205761281f61236f565b5b61282b848285611f0e565b509392505050565b600082601f8301126128485761284761236a565b5b81516128588482602086016127f1565b91505092915050565b6000806000806080858703121561287b5761287a611db8565b5b600061288987828801612777565b945050602061289a87828801612777565b93505060406128ab8782880161265b565b925050606085015167ffffffffffffffff8111156128cc576128cb611dbd565b5b6128d887828801612833565b91505092959194509250565b7f4e487b7100000000000000000000000000000000000000000000000000000000600052603260045260246000fd5b600061291e82611ef2565b61292881856121cd565b9350612938818560208601611f0e565b80840191505092915050565b60006129508284612913565b915081905092915050565b7f4e487b7100000000000000000000000000000000000000000000000000000000600052601160045260246000fd5b600061299582611f82565b91506129a083611f82565b92508282039050818111156129b8576129b761295b565b5b92915050565b60006040820190506129d36000830185611f8c565b6129e06020830184611f8c565b9392505050565b600067ffffffffffffffff821115612a0257612a016122be565b5b612a0b82611f38565b9050602081019050919050565b6000612a2b612a26846129e7565b61231e565b905082815260208101848484011115612a4757612a4661236f565b5b612a52848285611f0e565b509392505050565b600082601f830112612a6f57612a6e61236a565b5b8151612a7f848260208601612a18565b91505092915050565b600060208284031215612a9e57612a9d611db8565b5b600082015167ffffffffffffffff811115612abc57612abb611dbd565b5b612ac884828501612a5a565b91505092915050565b6000819050919050565b6000819050919050565b6000612b00612afb612af684612ad1565b612adb565b611f82565b9050919050565b612b1081612ae5565b82525050565b6000604082019050612b2b6000830185611eaf565b612b386020830184612b07565b9392505050565b612b4881611e47565b8114612b5357600080fd5b50565b600081519050612b6581612b3f565b92915050565b600060208284031215612b8157612b80611db8565b5b6000612b8f84828501612b56565b91505092915050565b6000612bb3612bae612ba984611e7d565b612adb565b611e7d565b9050919050565b6000612bc582612b98565b9050919050565b6000612bd782612bba565b9050919050565b612be781612bcc565b82525050565b6000608082019050612c026000830187612bde565b612c0f6020830186611eaf565b612c1c6040830185611eaf565b612c296060830184611f8c565b95945050505050565b7f43616e6e6f74207472616e7366657220746f2073656c66000000000000000000600082015250565b6000612c6860178361223c565b9150612c7382612c32565b602082019050919050565b60006020820190508181036000830152612c9781612c5b565b9050919050565b6000604082019050612cb36000830185611eaf565b612cc06020830184611eaf565b9392505050565b7f5361666545524332303a20617070726f76652066726f6d206e6f6e2d7a65726f60008201527f20746f206e6f6e2d7a65726f20616c6c6f77616e636500000000000000000000602082015250565b6000612d2360368361223c565b9150612d2e82612cc7565b604082019050919050565b60006020820190508181036000830152612d5281612d16565b9050919050565b600081519050919050565b6000612d6f82612d59565b612d79818561223c565b9350612d89818560208601611f0e565b612d9281611f38565b840191505092915050565b60006020820190508181036000830152612db78184612d64565b905092915050565b60006080820190508181036000830152612dd98187612d64565b9050612de86020830186611eaf565b612df56040830185611f8c565b612e026060830184611eaf565b95945050505050565b60006040820190508181036000830152612e258185612d64565b9050612e346020830184611f8c565b9392505050565b60006060820190508181036000830152612e558186612d64565b90508181036020830152612e698185612d64565b90508181036040830152612e7d8184612d64565b9050949350505050565b60006040820190508181036000830152612ea18185612d64565b9050612eb06020830184611e53565b9392505050565b7f5361666545524332303a204552433230206f7065726174696f6e20646964206e60008201527f6f74207375636365656400000000000000000000000000000000000000000000602082015250565b6000612f13602a8361223c565b9150612f1e82612eb7565b604082019050919050565b60006020820190508181036000830152612f4281612f06565b9050919050565b7f416464726573733a20696e73756666696369656e742062616c616e636520666f60008201527f722063616c6c0000000000000000000000000000000000000000000000000000602082015250565b6000612fa560268361223c565b9150612fb082612f49565b604082019050919050565b60006020820190508181036000830152612fd481612f98565b9050919050565b7f416464726573733a2063616c6c20746f206e6f6e2d636f6e7472616374000000600082015250565b6000613011601d8361223c565b915061301c82612fdb565b602082019050919050565b6000602082019050818103600083015261304081613004565b9050919050565b7f4e487b7100000000000000000000000000000000000000000000000000000000600052605160045260246000fdfea2646970667358221220e088fbf29c86bf9d961e034cd5072f0e6594bbdac30540e1f43fb91b415c425664736f6c63430008130033","abi":[{"inputs":[{"internalType":"address","name":"_router","type":"address"},{"internalType":"address","name":"_link","type":"address"}],"stateMutability":"nonpayable","type":"constructor"},{"inputs":[{"internalType":"address","name":"owner","type":"address"},{"internalType":"uint256","name":"value","type":"uint256"}],"name":"FailedToWithdraw","type":"error"},{"inputs":[{"internalType":"address","name":"router","type":"address"}],"name":"InvalidRouter","type":"error"},{"inputs":[{"internalType":"uint256","name":"_expected","type":"uint256"},{"internalType":"uint256","name":"_current","type":"uint256"}],"name":"LessThanExpected","type":"error"},{"inputs":[],"name":"NothingToWithdraw","type":"error"},{"inputs":[{"internalType":"uint64","name":"chainSelector","type":"uint64"},{"internalType":"address","name":"sender","type":"address"}],"name":"SourceNotWhitelisted","type":"error"},{"inputs":[],"name":"SwapperFailed","type":"error"},{"inputs":[{"internalType":"string","name":"_param","type":"string"}],"name":"ZeroAddress","type":"error"},{"anonymous":false,"inputs":[{"indexed":true,"internalType":"bytes32","name":"messageId","type":"bytes32"},{"indexed":true,"internalType":"uint64","name":"chainSelector","type":"uint64"},{"indexed":false,"internalType":"address","name":"sender","type":"address"},{"indexed":false,"internalType":"address","name":"dest","type":"address"},{"indexed":false,"internalType":"address","name":"token","type":"address"},{"indexed":false,"internalType":"uint256","name":"tokenAmount","type":"uint256"}],"name":"MessageReceived","type":"event"},{"anonymous":false,"inputs":[{"indexed":true,"internalType":"address","name":"from","type":"address"},{"indexed":true,"internalType":"address","name":"to","type":"address"}],"name":"OwnershipTransferRequested","type":"event"},{"anonymous":false,"inputs":[{"indexed":true,"internalType":"address","name":"from","type":"address"},{"indexed":true,"internalType":"address","name":"to","type":"address"}],"name":"OwnershipTransferred","type":"event"},{"anonymous":false,"inputs":[{"indexed":false,"internalType":"address","name":"_oldSwapper","type":"address"},{"indexed":false,"internalType":"address","name":"_oldSwapperApprover","type":"address"},{"indexed":false,"internalType":"address","name":"_newSwapper","type":"address"},{"indexed":false,"internalType":"address","name":"_newSwapperApprover","type":"address"}],"name":"SwapperChanged","type":"event"},{"inputs":[],"name":"acceptOwnership","outputs":[],"stateMutability":"nonpayable","type":"function"},{"inputs":[{"components":[{"internalType":"bytes32","name":"messageId","type":"bytes32"},{"internalType":"uint64","name":"sourceChainSelector","type":"uint64"},{"internalType":"bytes","name":"sender","type":"bytes"},{"internalType":"bytes","name":"data","type":"bytes"},{"components":[{"internalType":"address","name":"token","type":"address"},{"internalType":"uint256","name":"amount","type":"uint256"}],"internalType":"struct Client.EVMTokenAmount[]","name":"destTokenAmounts","type":"tuple[]"}],"internalType":"struct Client.Any2EVMMessage","name":"message","type":"tuple"}],"name":"ccipReceive","outputs":[],"stateMutability":"nonpayable","type":"function"},{"inputs":[{"internalType":"uint64","name":"_chainSelector","type":"uint64"},{"internalType":"address","name":"_sender","type":"address"}],"name":"denylistSource","outputs":[],"stateMutability":"nonpayable","type":"function"},{"inputs":[],"name":"getLastReceivedMessageDetails","outputs":[{"internalType":"bytes32","name":"messageId","type":"bytes32"},{"internalType":"bytes","name":"data","type":"bytes"},{"internalType":"address","name":"tokenAddress","type":"address"},{"internalType":"uint256","name":"tokenAmount","type":"uint256"}],"stateMutability":"view","type":"function"},{"inputs":[],"name":"getRouter","outputs":[{"internalType":"address","name":"","type":"address"}],"stateMutability":"view","type":"function"},{"inputs":[],"name":"owner","outputs":[{"internalType":"address","name":"","type":"address"}],"stateMutability":"view","type":"function"},{"inputs":[{"internalType":"address","name":"_swapper","type":"address"},{"internalType":"address","name":"_swapperApprover","type":"address"}],"name":"setSwapper","outputs":[],"stateMutability":"nonpayable","type":"function"},{"inputs":[{"internalType":"bytes4","name":"interfaceId","type":"bytes4"}],"name":"supportsInterface","outputs":[{"internalType":"bool","name":"","type":"bool"}],"stateMutability":"pure","type":"function"},{"inputs":[],"name":"swapper","outputs":[{"internalType":"address","name":"","type":"address"}],"stateMutability":"view","type":"function"},{"inputs":[],"name":"swapperApprover","outputs":[{"internalType":"address","name":"","type":"address"}],"stateMutability":"view","type":"function"},{"inputs":[{"internalType":"address","name":"to","type":"address"}],"name":"transferOwnership","outputs":[],"stateMutability":"nonpayable","type":"function"},{"inputs":[{"internalType":"uint64","name":"_chainSelector","type":"uint64"},{"internalType":"address","name":"_sender","type":"address"}],"name":"whitelistSource","outputs":[],"stateMutability":"nonpayable","type":"function"},{"inputs":[{"internalType":"uint64","name":"","type":"uint64"},{"internalType":"address","name":"","type":"address"}],"name":"whitelistedSources","outputs":[{"internalType":"bool","name":"","type":"bool"}],"stateMutability":"view","type":"function"},{"inputs":[],"name":"withdraw","outputs":[],"stateMutability":"nonpayable","type":"function"},{"inputs":[{"internalType":"address","name":"_token","type":"address"}],"name":"withdrawToken","outputs":[],"stateMutability":"nonpayable","type":"function"},{"stateMutability":"payable","type":"receive"}]}